{
  "contractName": "SwapContract",
  "abi": [
    {
      "inputs": [
        {
          "internalType": "contract TFCToken",
          "name": "_token",
          "type": "address"
        }
      ],
      "stateMutability": "nonpayable",
      "type": "constructor"
    },
    {
      "anonymous": false,
      "inputs": [
        {
          "indexed": true,
          "internalType": "address",
          "name": "sender",
          "type": "address"
        },
        {
          "indexed": true,
          "internalType": "address",
          "name": "receiver",
          "type": "address"
        },
        {
          "indexed": false,
          "internalType": "uint256",
          "name": "amount",
          "type": "uint256"
        },
        {
          "indexed": false,
          "internalType": "uint256",
          "name": "rate",
          "type": "uint256"
        }
      ],
      "name": "buyTokenEvent",
      "type": "event"
    },
    {
      "anonymous": false,
      "inputs": [
        {
          "indexed": true,
          "internalType": "address",
          "name": "sender",
          "type": "address"
        },
        {
          "indexed": true,
          "internalType": "address",
          "name": "receiver",
          "type": "address"
        },
        {
          "indexed": false,
          "internalType": "uint256",
          "name": "amount",
          "type": "uint256"
        },
        {
          "indexed": false,
          "internalType": "uint256",
          "name": "rate",
          "type": "uint256"
        }
      ],
      "name": "sellTokenEvent",
      "type": "event"
    },
    {
      "inputs": [],
      "name": "buyTokens",
      "outputs": [],
      "stateMutability": "payable",
      "type": "function",
      "payable": true
    },
    {
      "inputs": [
        {
          "internalType": "uint256",
          "name": "_amount",
          "type": "uint256"
        }
      ],
      "name": "sellTokens",
      "outputs": [],
      "stateMutability": "nonpayable",
      "type": "function"
    }
  ],
  "bytecode": "0x6080604052606460015534801561001557600080fd5b5060405161088e38038061088e833981810160405281019061003791906100f2565b806000806101000a81548173ffffffffffffffffffffffffffffffffffffffff021916908373ffffffffffffffffffffffffffffffffffffffff1602179055505061011f565b600080fd5b600073ffffffffffffffffffffffffffffffffffffffff82169050919050565b60006100ad82610082565b9050919050565b60006100bf826100a2565b9050919050565b6100cf816100b4565b81146100da57600080fd5b50565b6000815190506100ec816100c6565b92915050565b6000602082840312156101085761010761007d565b5b6000610116848285016100dd565b91505092915050565b6107608061012e6000396000f3fe6080604052600436106100295760003560e01c80636c11bcd31461002e578063d0febe4c14610057575b600080fd5b34801561003a57600080fd5b5061005560048036038101906100509190610479565b610061565b005b61005f61027b565b005b8060008054906101000a900473ffffffffffffffffffffffffffffffffffffffff1673ffffffffffffffffffffffffffffffffffffffff166370a08231336040518263ffffffff1660e01b81526004016100bb91906104e7565b602060405180830381865afa1580156100d8573d6000803e3d6000fd5b505050506040513d601f19601f820116820180604052508101906100fc9190610517565b101561010757600080fd5b60006001548261011791906105a2565b90508047101561012657600080fd5b60008054906101000a900473ffffffffffffffffffffffffffffffffffffffff1673ffffffffffffffffffffffffffffffffffffffff166323b872dd3330856040518463ffffffff1660e01b8152600401610183939291906105e2565b6020604051808303816000875af11580156101a2573d6000803e3d6000fd5b505050506040513d601f19601f820116820180604052508101906101c69190610651565b503373ffffffffffffffffffffffffffffffffffffffff166108fc829081150290604051600060405180830381858888f1935050505015801561020d573d6000803e3d6000fd5b503073ffffffffffffffffffffffffffffffffffffffff163373ffffffffffffffffffffffffffffffffffffffff167f9a1c22166a2d1a529f63961049d01086f633b6e9c28072e908c5b49f1b8efb728460015460405161026f92919061067e565b60405180910390a35050565b60006001543461028b91906106a7565b90508060008054906101000a900473ffffffffffffffffffffffffffffffffffffffff1673ffffffffffffffffffffffffffffffffffffffff166370a08231306040518263ffffffff1660e01b81526004016102e791906104e7565b602060405180830381865afa158015610304573d6000803e3d6000fd5b505050506040513d601f19601f820116820180604052508101906103289190610517565b101561033357600080fd5b60008054906101000a900473ffffffffffffffffffffffffffffffffffffffff1673ffffffffffffffffffffffffffffffffffffffff1663a9059cbb33836040518363ffffffff1660e01b815260040161038e929190610701565b6020604051808303816000875af11580156103ad573d6000803e3d6000fd5b505050506040513d601f19601f820116820180604052508101906103d19190610651565b503373ffffffffffffffffffffffffffffffffffffffff163073ffffffffffffffffffffffffffffffffffffffff167f9a1c22166a2d1a529f63961049d01086f633b6e9c28072e908c5b49f1b8efb728360015460405161043392919061067e565b60405180910390a350565b600080fd5b6000819050919050565b61045681610443565b811461046157600080fd5b50565b6000813590506104738161044d565b92915050565b60006020828403121561048f5761048e61043e565b5b600061049d84828501610464565b91505092915050565b600073ffffffffffffffffffffffffffffffffffffffff82169050919050565b60006104d1826104a6565b9050919050565b6104e1816104c6565b82525050565b60006020820190506104fc60008301846104d8565b92915050565b6000815190506105118161044d565b92915050565b60006020828403121561052d5761052c61043e565b5b600061053b84828501610502565b91505092915050565b7f4e487b7100000000000000000000000000000000000000000000000000000000600052601260045260246000fd5b7f4e487b7100000000000000000000000000000000000000000000000000000000600052601160045260246000fd5b60006105ad82610443565b91506105b883610443565b9250826105c8576105c7610544565b5b828204905092915050565b6105dc81610443565b82525050565b60006060820190506105f760008301866104d8565b61060460208301856104d8565b61061160408301846105d3565b949350505050565b60008115159050919050565b61062e81610619565b811461063957600080fd5b50565b60008151905061064b81610625565b92915050565b6000602082840312156106675761066661043e565b5b60006106758482850161063c565b91505092915050565b600060408201905061069360008301856105d3565b6106a060208301846105d3565b9392505050565b60006106b282610443565b91506106bd83610443565b9250817fffffffffffffffffffffffffffffffffffffffffffffffffffffffffffffffff04831182151516156106f6576106f5610573565b5b828202905092915050565b600060408201905061071660008301856104d8565b61072360208301846105d3565b939250505056fea2646970667358221220a90834d881fac7a84e5c4e6eb33112c4425eaa062b20f6d96363c7263d57efb364736f6c634300080b0033",
  "immutableReferences": {},
  "source": "// SPDX-License-Identifier: MIT\r\npragma solidity >=0.4.22 <0.9.0;\r\nimport \"./TFCToken.sol\";\r\n\r\ncontract SwapContract {\r\n  TFCToken token;\r\n  uint rate = 100;\r\n\r\n  event buyTokenEvent(\r\n    address indexed sender,\r\n    address indexed receiver,\r\n    uint256 amount,\r\n    uint rate\r\n  );\r\n\r\n  event sellTokenEvent(\r\n    address indexed sender,\r\n    address indexed receiver,\r\n    uint256 amount,\r\n    uint rate\r\n  );\r\n\r\n  constructor(TFCToken _token) {\r\n    token = _token;\r\n  }\r\n\r\n  function buyTokens () public payable {\r\n    uint256 tokenAmount = msg.value * rate;\r\n    require(token.balanceOf(address(this)) >= tokenAmount);\r\n\r\n    token.transfer(msg.sender, tokenAmount);\r\n    emit buyTokenEvent(address(this), msg.sender, tokenAmount, rate);\r\n  }\r\n\r\n  function sellTokens (uint256 _amount) public {\r\n    require(token.balanceOf(msg.sender) >= _amount);\r\n\r\n    uint256 amount = _amount/rate;\r\n    require(address(this).balance >= amount);\r\n    \r\n    token.transferFrom(msg.sender, address(this), _amount);\r\n    payable(msg.sender).transfer(amount);\r\n\r\n    emit buyTokenEvent(msg.sender, address(this), _amount, rate);\r\n  }\r\n}",
  "sourcePath": "D:\\work\\swap-example\\contracts\\SwapContract.sol",
  "compiler": {
    "name": "solc",
    "version": "0.8.11+commit.d7f03943.Emscripten.clang"
  },
  "schemaVersion": "3.4.4",
  "updatedAt": "2022-02-21T08:02:23.339Z",
  "networkType": "ethereum",
  "devdoc": {
    "kind": "dev",
    "methods": {},
    "version": 1
  },
  "userdoc": {
    "kind": "user",
    "methods": {},
    "version": 1
  }
}